{
  "transactions": [
    {
      "hash": "0x45ee9aaefb8f63462b238f218ce12a96bf477ee7c3bcf0aaf23e80bb17966126",
      "transactionType": "CREATE",
      "contractName": "TransferUSDC",
      "contractAddress": "0x2423ca836d32d91ffb53d4f7d652a0f39cd4208c",
      "function": null,
      "arguments": [
        "0xF694E193200268f9a4868e4Aa017A0118C9a8177",
        "0x0b9d5D9136855f6FEc3c0993feE6E9CE8a297846",
        "0x5425890298aed601595a70AB815c96711a31Bc65"
      ],
      "transaction": {
        "from": "0xfb0c1e0a4ded6df74e5caa07924aa3f8272ad0b8",
        "gas": "0x137edc",
        "value": "0x0",
        "input": "0x60e06040523480156200001157600080fd5b50604051620012a7380380620012a78339810160408190526200003491620001a7565b33806000816200008b5760405162461bcd60e51b815260206004820152601860248201527f43616e6e6f7420736574206f776e657220746f207a65726f000000000000000060448201526064015b60405180910390fd5b600080546001600160a01b0319166001600160a01b0384811691909117909155811615620000be57620000be81620000df565b5050506001600160a01b0392831660805290821660a0521660c052620001f1565b336001600160a01b03821603620001395760405162461bcd60e51b815260206004820152601760248201527f43616e6e6f74207472616e7366657220746f2073656c66000000000000000000604482015260640162000082565b600180546001600160a01b0319166001600160a01b0383811691821790925560008054604051929316917fed8889f560326eb138920d842192f0eb3dd22b4f139c87a2c57538e05bae12789190a350565b80516001600160a01b0381168114620001a257600080fd5b919050565b600080600060608486031215620001bd57600080fd5b620001c8846200018a565b9250620001d8602085016200018a565b9150620001e8604085016200018a565b90509250925092565b60805160a05160c05161104e62000259600039600081816102ee015281816106af015261071d015260008181610393015281816104c801528181610557015261063401526000818161043801528181610605015281816106ee01526107a2015261104e6000f3fe608060405234801561001057600080fd5b506004361061007d5760003560e01c806379ba50971161005b57806379ba5097146100f05780638da5cb5b146100f857806396d3b83d14610113578063f2fde38b1461012657600080fd5b80630bb106eb146100825780633aeac4e1146100ba5780636b83161a146100cf575b600080fd5b6100a5610090366004610d5a565b60026020526000908152604090205460ff1681565b60405190151581526020015b60405180910390f35b6100cd6100c8366004610d93565b610139565b005b6100e26100dd366004610dc6565b610248565b6040519081526020016100b1565b6100cd61088c565b6000546040516001600160a01b0390911681526020016100b1565b6100cd610121366004610e21565b610936565b6100cd610134366004610e58565b61096a565b61014161097e565b6040516370a0823160e01b81523060048201526000906001600160a01b038316906370a0823190602401602060405180830381865afa158015610188573d6000803e3d6000fd5b505050506040513d601f19601f820116820180604052508101906101ac9190610e73565b9050806000036101cf57604051630686827b60e51b815260040160405180910390fd5b60405163a9059cbb60e01b81526001600160a01b0384811660048301526024820183905283169063a9059cbb906044016020604051808303816000875af115801561021e573d6000803e3d6000fd5b505050506040513d601f19601f820116820180604052508101906102429190610e8c565b50505050565b600061025261097e565b67ffffffffffffffff8516600090815260026020526040902054859060ff1661029f57604051630a503cdb60e01b815267ffffffffffffffff821660048201526024015b60405180910390fd5b604080516001808252818301909252600091816020015b60408051808201909152600080825260208201528152602001906001900390816102b6579050509050600060405180604001604052807f00000000000000000000000000000000000000000000000000000000000000006001600160a01b03168152602001878152509050808260008151811061033557610335610ea9565b60209081029190910101526040805160a081019091526001600160a01b03881660c08201526000908060e0810160405160208183030381529060405281526020016040518060200160405280600081525081526020018481526020017f00000000000000000000000000000000000000000000000000000000000000006001600160a01b0316815260200161041960405180602001604052808a67ffffffffffffffff1681525060408051915160248084019190915281518084039091018152604490920190526020810180516001600160e01b03166397a657c960e01b17905290565b90526040516320487ded60e01b81529091506000906001600160a01b037f000000000000000000000000000000000000000000000000000000000000000016906320487ded9061046f908d908690600401610f0f565b602060405180830381865afa15801561048c573d6000803e3d6000fd5b505050506040513d601f19601f820116820180604052508101906104b09190610e73565b6040516370a0823160e01b81523060048201529091507f00000000000000000000000000000000000000000000000000000000000000006001600160a01b0316906370a0823190602401602060405180830381865afa158015610517573d6000803e3d6000fd5b505050506040513d601f19601f8201168201806040525081019061053b9190610e73565b8111156105ee576040516370a0823160e01b81523060048201527f00000000000000000000000000000000000000000000000000000000000000006001600160a01b0316906370a0823190602401602060405180830381865afa1580156105a6573d6000803e3d6000fd5b505050506040513d601f19601f820116820180604052508101906105ca9190610e73565b604051634787a10360e11b8152600481019190915260248101829052604401610296565b60405163095ea7b360e01b81526001600160a01b037f000000000000000000000000000000000000000000000000000000000000000081166004830152602482018390527f0000000000000000000000000000000000000000000000000000000000000000169063095ea7b3906044016020604051808303816000875af115801561067d573d6000803e3d6000fd5b505050506040513d601f19601f820116820180604052508101906106a19190610e8c565b506106d76001600160a01b037f00000000000000000000000000000000000000000000000000000000000000001633308b6109d3565b60405163095ea7b360e01b81526001600160a01b037f000000000000000000000000000000000000000000000000000000000000000081166004830152602482018a90527f0000000000000000000000000000000000000000000000000000000000000000169063095ea7b3906044016020604051808303816000875af1158015610766573d6000803e3d6000fd5b505050506040513d601f19601f8201168201806040525081019061078a9190610e8c565b506040516396f4e9f960e01b81526001600160a01b037f000000000000000000000000000000000000000000000000000000000000000016906396f4e9f9906107d9908d908690600401610f0f565b6020604051808303816000875af11580156107f8573d6000803e3d6000fd5b505050506040513d601f19601f8201168201806040525081019061081c9190610e73565b6040805182815267ffffffffffffffff8d1660208201526001600160a01b038c1681830152606081018b90526080810184905290519197507fb55a3d3f1ccd1c10f00aff03ad884028d98fa1d478fae03acecbf884ce8e8fbc919081900360a00190a15050505050949350505050565b6001546001600160a01b031633146108df5760405162461bcd60e51b815260206004820152601660248201527526bab9ba10313290383937b837b9b2b21037bbb732b960511b6044820152606401610296565b60008054336001600160a01b0319808316821784556001805490911690556040516001600160a01b0390921692909183917f8be0079c531659141344cd1fd0a4f28419497f9722a3daafe3b4186f6b6457e091a350565b61093e61097e565b67ffffffffffffffff919091166000908152600260205260409020805460ff1916911515919091179055565b61097261097e565b61097b81610a2d565b50565b6000546001600160a01b031633146109d15760405162461bcd60e51b815260206004820152601660248201527527b7363c9031b0b63630b1363290313c9037bbb732b960511b6044820152606401610296565b565b604080516001600160a01b0385811660248301528416604482015260648082018490528251808303909101815260849091019091526020810180516001600160e01b03166323b872dd60e01b179052610242908590610ad6565b336001600160a01b03821603610a855760405162461bcd60e51b815260206004820152601760248201527f43616e6e6f74207472616e7366657220746f2073656c660000000000000000006044820152606401610296565b600180546001600160a01b0319166001600160a01b0383811691821790925560008054604051929316917fed8889f560326eb138920d842192f0eb3dd22b4f139c87a2c57538e05bae12789190a350565b6000610b2b826040518060400160405280602081526020017f5361666545524332303a206c6f772d6c6576656c2063616c6c206661696c6564815250856001600160a01b0316610bad9092919063ffffffff16565b805190915015610ba85780806020019051810190610b499190610e8c565b610ba85760405162461bcd60e51b815260206004820152602a60248201527f5361666545524332303a204552433230206f7065726174696f6e20646964206e6044820152691bdd081cdd58d8d9595960b21b6064820152608401610296565b505050565b6060610bbc8484600085610bc4565b949350505050565b606082471015610c255760405162461bcd60e51b815260206004820152602660248201527f416464726573733a20696e73756666696369656e742062616c616e636520666f6044820152651c8818d85b1b60d21b6064820152608401610296565b600080866001600160a01b03168587604051610c419190610fe9565b60006040518083038185875af1925050503d8060008114610c7e576040519150601f19603f3d011682016040523d82523d6000602084013e610c83565b606091505b5091509150610c9487838387610c9f565b979650505050505050565b60608315610d0e578251600003610d07576001600160a01b0385163b610d075760405162461bcd60e51b815260206004820152601d60248201527f416464726573733a2063616c6c20746f206e6f6e2d636f6e74726163740000006044820152606401610296565b5081610bbc565b610bbc8383815115610d235781518083602001fd5b8060405162461bcd60e51b81526004016102969190611005565b803567ffffffffffffffff81168114610d5557600080fd5b919050565b600060208284031215610d6c57600080fd5b610d7582610d3d565b9392505050565b80356001600160a01b0381168114610d5557600080fd5b60008060408385031215610da657600080fd5b610daf83610d7c565b9150610dbd60208401610d7c565b90509250929050565b60008060008060808587031215610ddc57600080fd5b610de585610d3d565b9350610df360208601610d7c565b925060408501359150610e0860608601610d3d565b905092959194509250565b801515811461097b57600080fd5b60008060408385031215610e3457600080fd5b610e3d83610d3d565b91506020830135610e4d81610e13565b809150509250929050565b600060208284031215610e6a57600080fd5b610d7582610d7c565b600060208284031215610e8557600080fd5b5051919050565b600060208284031215610e9e57600080fd5b8151610d7581610e13565b634e487b7160e01b600052603260045260246000fd5b60005b83811015610eda578181015183820152602001610ec2565b50506000910152565b60008151808452610efb816020860160208601610ebf565b601f01601f19169290920160200192915050565b6000604067ffffffffffffffff8516835260208181850152845160a083860152610f3c60e0860182610ee3565b905081860151603f1980878403016060880152610f598383610ee3565b88860151888203830160808a01528051808352908601945060009350908501905b80841015610fac57845180516001600160a01b0316835286015186830152938501936001939093019290860190610f7a565b5060608901516001600160a01b031660a08901526080890151888203830160c08a01529550610fdb8187610ee3565b9a9950505050505050505050565b60008251610ffb818460208701610ebf565b9190910192915050565b602081526000610d756020830184610ee356fea264697066735822122016e58cbeb76607d75a3a69586f485e08425dca619333412133df209df7efa21064736f6c63430008130033000000000000000000000000f694e193200268f9a4868e4aa017a0118c9a81770000000000000000000000000b9d5d9136855f6fec3c0993fee6e9ce8a2978460000000000000000000000005425890298aed601595a70ab815c96711a31bc65",
        "nonce": "0x14",
        "chainId": "0xa869"
      },
      "additionalContracts": [],
      "isFixedGasLimit": false
    },
    {
      "hash": "0x894e8ec081c2e627b5d0d8996f56db81efdca7f12007c7ef876d5c3b58bd2a1b",
      "transactionType": "CALL",
      "contractName": null,
      "contractAddress": "0x0b9d5d9136855f6fec3c0993fee6e9ce8a297846",
      "function": "transfer(address,uint256)",
      "arguments": [
        "0x2423CA836D32D91ffb53D4f7d652A0F39Cd4208c",
        "3000000000000000000"
      ],
      "transaction": {
        "from": "0xfb0c1e0a4ded6df74e5caa07924aa3f8272ad0b8",
        "to": "0x0b9d5d9136855f6fec3c0993fee6e9ce8a297846",
        "gas": "0x1287c",
        "value": "0x0",
        "input": "0xa9059cbb0000000000000000000000002423ca836d32d91ffb53d4f7d652a0f39cd4208c00000000000000000000000000000000000000000000000029a2241af62c0000",
        "nonce": "0x15",
        "chainId": "0xa869"
      },
      "additionalContracts": [],
      "isFixedGasLimit": false
    },
    {
      "hash": "0xbb4887fd2bdf6c01d11e52d6cf95a2555c0f7cb443a4bd3d7c4b59a853f955a0",
      "transactionType": "CALL",
      "contractName": null,
      "contractAddress": "0x5425890298aed601595a70ab815c96711a31bc65",
      "function": "approve(address,uint256)",
      "arguments": [
        "0x2423CA836D32D91ffb53D4f7d652A0F39Cd4208c",
        "1000000"
      ],
      "transaction": {
        "from": "0xfb0c1e0a4ded6df74e5caa07924aa3f8272ad0b8",
        "to": "0x5425890298aed601595a70ab815c96711a31bc65",
        "gas": "0x12b1b",
        "value": "0x0",
        "input": "0x095ea7b30000000000000000000000002423ca836d32d91ffb53d4f7d652a0f39cd4208c00000000000000000000000000000000000000000000000000000000000f4240",
        "nonce": "0x16",
        "chainId": "0xa869"
      },
      "additionalContracts": [],
      "isFixedGasLimit": false
    },
    {
      "hash": "0xc0fdea7f22732a975b79b2eb9cc7977be2fcb2900cda4948f345a42440b3eadd",
      "transactionType": "CALL",
      "contractName": "TransferUSDC",
      "contractAddress": "0x2423ca836d32d91ffb53d4f7d652a0f39cd4208c",
      "function": "allowlistDestinationChain(uint64,bool)",
      "arguments": [
        "16015286601757825753",
        "true"
      ],
      "transaction": {
        "from": "0xfb0c1e0a4ded6df74e5caa07924aa3f8272ad0b8",
        "to": "0x2423ca836d32d91ffb53d4f7d652a0f39cd4208c",
        "gas": "0x10822",
        "value": "0x0",
        "input": "0x96d3b83d000000000000000000000000000000000000000000000000de41ba4fc9d91ad90000000000000000000000000000000000000000000000000000000000000001",
        "nonce": "0x17",
        "chainId": "0xa869"
      },
      "additionalContracts": [],
      "isFixedGasLimit": false
    },
    {
      "hash": "0x95747188ca66a7ceacb7581da7f6f8deb6a222b51d9c558be1dad82ba651a59b",
      "transactionType": "CALL",
      "contractName": "TransferUSDC",
      "contractAddress": "0x2423ca836d32d91ffb53d4f7d652a0f39cd4208c",
      "function": "transferUsdc(uint64,address,uint256,uint64)",
      "arguments": [
        "16015286601757825753",
        "0xFB0c1e0a4deD6DF74E5CAa07924aa3F8272Ad0B8",
        "1000000",
        "0"
      ],
      "transaction": {
        "from": "0xfb0c1e0a4ded6df74e5caa07924aa3f8272ad0b8",
        "to": "0x2423ca836d32d91ffb53d4f7d652a0f39cd4208c",
        "gas": "0x7483d",
        "value": "0x0",
        "input": "0x6b83161a000000000000000000000000000000000000000000000000de41ba4fc9d91ad9000000000000000000000000fb0c1e0a4ded6df74e5caa07924aa3f8272ad0b800000000000000000000000000000000000000000000000000000000000f42400000000000000000000000000000000000000000000000000000000000000000",
        "nonce": "0x18",
        "chainId": "0xa869"
      },
      "additionalContracts": [],
      "isFixedGasLimit": false
    }
  ],
  "receipts": [
    {
      "status": "0x1",
      "cumulativeGasUsed": "0xf0052",
      "logs": [],
      "logsBloom": "0x00000000000000000000000000000000000000000000000000000000000000000000000000000000000000000000000000000000000000000000000000000000000000000000000000000000000000000000000000000000000000000000000000000000000000000000000000000000000000000000000000000000000000000000000000000000000000000000000000000000000000000000000000000000000000000000000000000000000000000000000000000000000000000000000000000000000000000000000000000000000000000000000000000000000000000000000000000000000000000000000000000000000000000000000000000000",
      "type": "0x2",
      "transactionHash": "0x45ee9aaefb8f63462b238f218ce12a96bf477ee7c3bcf0aaf23e80bb17966126",
      "transactionIndex": "0x0",
      "blockHash": "0x14c186eaa17cf67f48455ad08f74baba0901d2adf37d85df18647fc890612b90",
      "blockNumber": "0x21e5a8b",
      "gasUsed": "0xf0052",
      "effectiveGasPrice": "0x649534e00",
      "from": "0xfb0c1e0a4ded6df74e5caa07924aa3f8272ad0b8",
      "to": null,
      "contractAddress": "0x2423ca836d32d91ffb53d4f7d652a0f39cd4208c"
    },
    {
      "status": "0x1",
      "cumulativeGasUsed": "0xcaba",
      "logs": [
        {
          "address": "0x0b9d5d9136855f6fec3c0993fee6e9ce8a297846",
          "topics": [
            "0xddf252ad1be2c89b69c2b068fc378daa952ba7f163c4a11628f55a4df523b3ef",
            "0x000000000000000000000000fb0c1e0a4ded6df74e5caa07924aa3f8272ad0b8",
            "0x0000000000000000000000002423ca836d32d91ffb53d4f7d652a0f39cd4208c"
          ],
          "data": "0x00000000000000000000000000000000000000000000000029a2241af62c0000",
          "blockHash": "0x97a9e6d2ed5be6eb66c700d89596fa88343d675e658c9a7e68df48c64e7d0720",
          "blockNumber": "0x21e5a8c",
          "transactionHash": "0x894e8ec081c2e627b5d0d8996f56db81efdca7f12007c7ef876d5c3b58bd2a1b",
          "transactionIndex": "0x0",
          "logIndex": "0x0",
          "removed": false
        }
      ],
      "logsBloom": "0x01000000000000000000000000000000000000000000000000000000000000000000000000000000000000000000000000000000000000000000000000000000000000000000000000000008000000000000000000000000000000000000001000000000000000000000000000000000000000000000000000000010000000000000000000000000000000000000000000000000000000000000200000000000000000000000000200000000000000000000000002000000000000000000000000200002000000000000000000000000000000000000000800080004000000000000000000000000000000000000000000000000000000000000000000000000",
      "type": "0x2",
      "transactionHash": "0x894e8ec081c2e627b5d0d8996f56db81efdca7f12007c7ef876d5c3b58bd2a1b",
      "transactionIndex": "0x0",
      "blockHash": "0x97a9e6d2ed5be6eb66c700d89596fa88343d675e658c9a7e68df48c64e7d0720",
      "blockNumber": "0x21e5a8c",
      "gasUsed": "0xcaba",
      "effectiveGasPrice": "0x649534e00",
      "from": "0xfb0c1e0a4ded6df74e5caa07924aa3f8272ad0b8",
      "to": "0x0b9d5d9136855f6fec3c0993fee6e9ce8a297846",
      "contractAddress": null
    },
    {
      "status": "0x1",
      "cumulativeGasUsed": "0x1a347",
      "logs": [
        {
          "address": "0x5425890298aed601595a70ab815c96711a31bc65",
          "topics": [
            "0x8c5be1e5ebec7d5bd14f71427d1e84f3dd0314c0f7b2291e5b200ac8c7c3b925",
            "0x000000000000000000000000fb0c1e0a4ded6df74e5caa07924aa3f8272ad0b8",
            "0x0000000000000000000000002423ca836d32d91ffb53d4f7d652a0f39cd4208c"
          ],
          "data": "0x00000000000000000000000000000000000000000000000000000000000f4240",
          "blockHash": "0x97a9e6d2ed5be6eb66c700d89596fa88343d675e658c9a7e68df48c64e7d0720",
          "blockNumber": "0x21e5a8c",
          "transactionHash": "0xbb4887fd2bdf6c01d11e52d6cf95a2555c0f7cb443a4bd3d7c4b59a853f955a0",
          "transactionIndex": "0x1",
          "logIndex": "0x1",
          "removed": false
        }
      ],
      "logsBloom": "0x00000000000000000000000000000000000040000000000000000000000000000000000000000000000000000000000000008000000000000000000000200000000000000000000000000000000000000000000000000000000000000000001000000000000000000000000000000000000000000000000000400000000000000000000000000000000000000000000000000000000000000000200000000000020000000000000000000000000000000000000002000000000000000000000000200000000000000000000000000000000000000000000000080004000000000010000000000000000000000000000000000000000000000000000000000000",
      "type": "0x2",
      "transactionHash": "0xbb4887fd2bdf6c01d11e52d6cf95a2555c0f7cb443a4bd3d7c4b59a853f955a0",
      "transactionIndex": "0x1",
      "blockHash": "0x97a9e6d2ed5be6eb66c700d89596fa88343d675e658c9a7e68df48c64e7d0720",
      "blockNumber": "0x21e5a8c",
      "gasUsed": "0xd88d",
      "effectiveGasPrice": "0x649534e00",
      "from": "0xfb0c1e0a4ded6df74e5caa07924aa3f8272ad0b8",
      "to": "0x5425890298aed601595a70ab815c96711a31bc65",
      "contractAddress": null
    },
    {
      "status": "0x1",
      "cumulativeGasUsed": "0x257e2",
      "logs": [],
      "logsBloom": "0x00000000000000000000000000000000000000000000000000000000000000000000000000000000000000000000000000000000000000000000000000000000000000000000000000000000000000000000000000000000000000000000000000000000000000000000000000000000000000000000000000000000000000000000000000000000000000000000000000000000000000000000000000000000000000000000000000000000000000000000000000000000000000000000000000000000000000000000000000000000000000000000000000000000000000000000000000000000000000000000000000000000000000000000000000000000",
      "type": "0x2",
      "transactionHash": "0xc0fdea7f22732a975b79b2eb9cc7977be2fcb2900cda4948f345a42440b3eadd",
      "transactionIndex": "0x2",
      "blockHash": "0x97a9e6d2ed5be6eb66c700d89596fa88343d675e658c9a7e68df48c64e7d0720",
      "blockNumber": "0x21e5a8c",
      "gasUsed": "0xb49b",
      "effectiveGasPrice": "0x649534e00",
      "from": "0xfb0c1e0a4ded6df74e5caa07924aa3f8272ad0b8",
      "to": "0x2423ca836d32d91ffb53d4f7d652a0f39cd4208c",
      "contractAddress": null
    },
    {
      "status": "0x1",
      "cumulativeGasUsed": "0x8eefb",
      "logs": [
        {
          "address": "0x0b9d5d9136855f6fec3c0993fee6e9ce8a297846",
          "topics": [
            "0x8c5be1e5ebec7d5bd14f71427d1e84f3dd0314c0f7b2291e5b200ac8c7c3b925",
            "0x0000000000000000000000002423ca836d32d91ffb53d4f7d652a0f39cd4208c",
            "0x000000000000000000000000f694e193200268f9a4868e4aa017a0118c9a8177"
          ],
          "data": "0x000000000000000000000000000000000000000000000000004b7fe35eb8c1d2",
          "blockHash": "0x97a9e6d2ed5be6eb66c700d89596fa88343d675e658c9a7e68df48c64e7d0720",
          "blockNumber": "0x21e5a8c",
          "transactionHash": "0x95747188ca66a7ceacb7581da7f6f8deb6a222b51d9c558be1dad82ba651a59b",
          "transactionIndex": "0x3",
          "logIndex": "0x2",
          "removed": false
        },
        {
          "address": "0x5425890298aed601595a70ab815c96711a31bc65",
          "topics": [
            "0xddf252ad1be2c89b69c2b068fc378daa952ba7f163c4a11628f55a4df523b3ef",
            "0x000000000000000000000000fb0c1e0a4ded6df74e5caa07924aa3f8272ad0b8",
            "0x0000000000000000000000002423ca836d32d91ffb53d4f7d652a0f39cd4208c"
          ],
          "data": "0x00000000000000000000000000000000000000000000000000000000000f4240",
          "blockHash": "0x97a9e6d2ed5be6eb66c700d89596fa88343d675e658c9a7e68df48c64e7d0720",
          "blockNumber": "0x21e5a8c",
          "transactionHash": "0x95747188ca66a7ceacb7581da7f6f8deb6a222b51d9c558be1dad82ba651a59b",
          "transactionIndex": "0x3",
          "logIndex": "0x3",
          "removed": false
        },
        {
          "address": "0x5425890298aed601595a70ab815c96711a31bc65",
          "topics": [
            "0x8c5be1e5ebec7d5bd14f71427d1e84f3dd0314c0f7b2291e5b200ac8c7c3b925",
            "0x0000000000000000000000002423ca836d32d91ffb53d4f7d652a0f39cd4208c",
            "0x000000000000000000000000f694e193200268f9a4868e4aa017a0118c9a8177"
          ],
          "data": "0x00000000000000000000000000000000000000000000000000000000000f4240",
          "blockHash": "0x97a9e6d2ed5be6eb66c700d89596fa88343d675e658c9a7e68df48c64e7d0720",
          "blockNumber": "0x21e5a8c",
          "transactionHash": "0x95747188ca66a7ceacb7581da7f6f8deb6a222b51d9c558be1dad82ba651a59b",
          "transactionIndex": "0x3",
          "logIndex": "0x4",
          "removed": false
        },
        {
          "address": "0x0b9d5d9136855f6fec3c0993fee6e9ce8a297846",
          "topics": [
            "0xddf252ad1be2c89b69c2b068fc378daa952ba7f163c4a11628f55a4df523b3ef",
            "0x0000000000000000000000002423ca836d32d91ffb53d4f7d652a0f39cd4208c",
            "0x0000000000000000000000005724b4cc39a9690135f7273b44dfd3ba6c0c69ad"
          ],
          "data": "0x000000000000000000000000000000000000000000000000004b7fe35eb8c1d2",
          "blockHash": "0x97a9e6d2ed5be6eb66c700d89596fa88343d675e658c9a7e68df48c64e7d0720",
          "blockNumber": "0x21e5a8c",
          "transactionHash": "0x95747188ca66a7ceacb7581da7f6f8deb6a222b51d9c558be1dad82ba651a59b",
          "transactionIndex": "0x3",
          "logIndex": "0x5",
          "removed": false
        },
        {
          "address": "0x5425890298aed601595a70ab815c96711a31bc65",
          "topics": [
            "0xddf252ad1be2c89b69c2b068fc378daa952ba7f163c4a11628f55a4df523b3ef",
            "0x0000000000000000000000002423ca836d32d91ffb53d4f7d652a0f39cd4208c",
            "0x0000000000000000000000007a4d8f8c18762d362e64b411d7490fba112811cd"
          ],
          "data": "0x00000000000000000000000000000000000000000000000000000000000f4240",
          "blockHash": "0x97a9e6d2ed5be6eb66c700d89596fa88343d675e658c9a7e68df48c64e7d0720",
          "blockNumber": "0x21e5a8c",
          "transactionHash": "0x95747188ca66a7ceacb7581da7f6f8deb6a222b51d9c558be1dad82ba651a59b",
          "transactionIndex": "0x3",
          "logIndex": "0x6",
          "removed": false
        },
        {
          "address": "0x5724b4cc39a9690135f7273b44dfd3ba6c0c69ad",
          "topics": [
            "0x1871cdf8010e63f2eb8384381a68dfa7416dc571a5517e66e88b2d2d0c0a690a"
          ],
          "data": "0x0000000000000000000000000000000000000000000000000de0b6b3a7640000",
          "blockHash": "0x97a9e6d2ed5be6eb66c700d89596fa88343d675e658c9a7e68df48c64e7d0720",
          "blockNumber": "0x21e5a8c",
          "transactionHash": "0x95747188ca66a7ceacb7581da7f6f8deb6a222b51d9c558be1dad82ba651a59b",
          "transactionIndex": "0x3",
          "logIndex": "0x7",
          "removed": false
        },
        {
          "address": "0x7a4d8f8c18762d362e64b411d7490fba112811cd",
          "topics": [
            "0x1871cdf8010e63f2eb8384381a68dfa7416dc571a5517e66e88b2d2d0c0a690a"
          ],
          "data": "0x00000000000000000000000000000000000000000000000000000000000f4240",
          "blockHash": "0x97a9e6d2ed5be6eb66c700d89596fa88343d675e658c9a7e68df48c64e7d0720",
          "blockNumber": "0x21e5a8c",
          "transactionHash": "0x95747188ca66a7ceacb7581da7f6f8deb6a222b51d9c558be1dad82ba651a59b",
          "transactionIndex": "0x3",
          "logIndex": "0x8",
          "removed": false
        },
        {
          "address": "0x5425890298aed601595a70ab815c96711a31bc65",
          "topics": [
            "0xddf252ad1be2c89b69c2b068fc378daa952ba7f163c4a11628f55a4df523b3ef",
            "0x0000000000000000000000007a4d8f8c18762d362e64b411d7490fba112811cd",
            "0x0000000000000000000000004ed8867f9947a5fe140c9dc1c6f207f3489f501e"
          ],
          "data": "0x00000000000000000000000000000000000000000000000000000000000f4240",
          "blockHash": "0x97a9e6d2ed5be6eb66c700d89596fa88343d675e658c9a7e68df48c64e7d0720",
          "blockNumber": "0x21e5a8c",
          "transactionHash": "0x95747188ca66a7ceacb7581da7f6f8deb6a222b51d9c558be1dad82ba651a59b",
          "transactionIndex": "0x3",
          "logIndex": "0x9",
          "removed": false
        },
        {
          "address": "0x5425890298aed601595a70ab815c96711a31bc65",
          "topics": [
            "0xcc16f5dbb4873280815c1ee09dbd06736cffcc184412cf7a71a0fdb75d397ca5",
            "0x0000000000000000000000004ed8867f9947a5fe140c9dc1c6f207f3489f501e"
          ],
          "data": "0x00000000000000000000000000000000000000000000000000000000000f4240",
          "blockHash": "0x97a9e6d2ed5be6eb66c700d89596fa88343d675e658c9a7e68df48c64e7d0720",
          "blockNumber": "0x21e5a8c",
          "transactionHash": "0x95747188ca66a7ceacb7581da7f6f8deb6a222b51d9c558be1dad82ba651a59b",
          "transactionIndex": "0x3",
          "logIndex": "0xa",
          "removed": false
        },
        {
          "address": "0x5425890298aed601595a70ab815c96711a31bc65",
          "topics": [
            "0xddf252ad1be2c89b69c2b068fc378daa952ba7f163c4a11628f55a4df523b3ef",
            "0x0000000000000000000000004ed8867f9947a5fe140c9dc1c6f207f3489f501e",
            "0x0000000000000000000000000000000000000000000000000000000000000000"
          ],
          "data": "0x00000000000000000000000000000000000000000000000000000000000f4240",
          "blockHash": "0x97a9e6d2ed5be6eb66c700d89596fa88343d675e658c9a7e68df48c64e7d0720",
          "blockNumber": "0x21e5a8c",
          "transactionHash": "0x95747188ca66a7ceacb7581da7f6f8deb6a222b51d9c558be1dad82ba651a59b",
          "transactionIndex": "0x3",
          "logIndex": "0xb",
          "removed": false
        },
        {
          "address": "0xa9fb1b3009dcb79e2fe346c16a604b8fa8ae0a79",
          "topics": [
            "0x8c5261668696ce22758910d05bab8f186d6eb247ceac2af2e82c7dc17669b036"
          ],
          "data": "0x000000000000000000000000000000000000000000000000000000000000002000000000000000000000000000000000000000000000000000000000000000f8000000000000000100000000000000000004a934000000000000000000000000eb08f243e5d3fcff26a9e38ae5520a669f4019d00000000000000000000000009f3b8679c73c2fef8b59b4f3444d4e156fb70aa50000000000000000000000003ff675b880ac9f67ac6f4342ffd9e99b80469bad000000000000000000000000000000005425890298aed601595a70ab815c96711a31bc65000000000000000000000000fb0c1e0a4ded6df74e5caa07924aa3f8272ad0b800000000000000000000000000000000000000000000000000000000000f42400000000000000000000000007a4d8f8c18762d362e64b411d7490fba112811cd0000000000000000",
          "blockHash": "0x97a9e6d2ed5be6eb66c700d89596fa88343d675e658c9a7e68df48c64e7d0720",
          "blockNumber": "0x21e5a8c",
          "transactionHash": "0x95747188ca66a7ceacb7581da7f6f8deb6a222b51d9c558be1dad82ba651a59b",
          "transactionIndex": "0x3",
          "logIndex": "0xc",
          "removed": false
        },
        {
          "address": "0xeb08f243e5d3fcff26a9e38ae5520a669f4019d0",
          "topics": [
            "0x2fa9ca894982930190727e75500a97d8dc500233a5065e0f3126c48fbe0343c0",
            "0x000000000000000000000000000000000000000000000000000000000004a934",
            "0x0000000000000000000000005425890298aed601595a70ab815c96711a31bc65",
            "0x0000000000000000000000007a4d8f8c18762d362e64b411d7490fba112811cd"
          ],
          "data": "0x00000000000000000000000000000000000000000000000000000000000f4240000000000000000000000000fb0c1e0a4ded6df74e5caa07924aa3f8272ad0b800000000000000000000000000000000000000000000000000000000000000000000000000000000000000009f3b8679c73c2fef8b59b4f3444d4e156fb70aa50000000000000000000000003ff675b880ac9f67ac6f4342ffd9e99b80469bad",
          "blockHash": "0x97a9e6d2ed5be6eb66c700d89596fa88343d675e658c9a7e68df48c64e7d0720",
          "blockNumber": "0x21e5a8c",
          "transactionHash": "0x95747188ca66a7ceacb7581da7f6f8deb6a222b51d9c558be1dad82ba651a59b",
          "transactionIndex": "0x3",
          "logIndex": "0xd",
          "removed": false
        },
        {
          "address": "0x7a4d8f8c18762d362e64b411d7490fba112811cd",
          "topics": [
            "0x696de425f79f4a40bc6d2122ca50507f0efbeabbff86a84871b7196ab8ea8df7",
            "0x0000000000000000000000005724b4cc39a9690135f7273b44dfd3ba6c0c69ad"
          ],
          "data": "0x00000000000000000000000000000000000000000000000000000000000f4240",
          "blockHash": "0x97a9e6d2ed5be6eb66c700d89596fa88343d675e658c9a7e68df48c64e7d0720",
          "blockNumber": "0x21e5a8c",
          "transactionHash": "0x95747188ca66a7ceacb7581da7f6f8deb6a222b51d9c558be1dad82ba651a59b",
          "transactionIndex": "0x3",
          "logIndex": "0xe",
          "removed": false
        },
        {
          "address": "0x5724b4cc39a9690135f7273b44dfd3ba6c0c69ad",
          "topics": [
            "0xd0c3c799bf9e2639de44391e7f524d229b2b55f5b1ea94b2bf7da42f7243dddd"
          ],
          "data": "0x0000000000000000000000000000000000000000000000000000000000000020000000000000000000000000000000000000000000000000ccf0a31a221f3c9b0000000000000000000000002423ca836d32d91ffb53d4f7d652a0f39cd4208c000000000000000000000000fb0c1e0a4ded6df74e5caa07924aa3f8272ad0b80000000000000000000000000000000000000000000000000000000000003e330000000000000000000000000000000000000000000000000000000000000000000000000000000000000000000000000000000000000000000000000000000000000000000000000000000000000000000000000000000000000000000000010000000000000000000000000b9d5d9136855f6fec3c0993fee6e9ce8a297846000000000000000000000000000000000000000000000000004b7fe35eb8c1d200000000000000000000000000000000000000000000000000000000000001a000000000000000000000000000000000000000000000000000000000000001c0000000000000000000000000000000000000000000000000000000000000022071204d1498d48b0899d2b581656e261556604a1b066f14d07c2994230f1c06cc000000000000000000000000000000000000000000000000000000000000000000000000000000000000000000000000000000000000000000000000000000010000000000000000000000005425890298aed601595a70ab815c96711a31bc6500000000000000000000000000000000000000000000000000000000000f4240000000000000000000000000000000000000000000000000000000000000000100000000000000000000000000000000000000000000000000000000000000200000000000000000000000000000000000000000000000000000000000000040000000000000000000000000000000000000000000000000000000000004a9340000000000000000000000000000000000000000000000000000000000000001",
          "blockHash": "0x97a9e6d2ed5be6eb66c700d89596fa88343d675e658c9a7e68df48c64e7d0720",
          "blockNumber": "0x21e5a8c",
          "transactionHash": "0x95747188ca66a7ceacb7581da7f6f8deb6a222b51d9c558be1dad82ba651a59b",
          "transactionIndex": "0x3",
          "logIndex": "0xf",
          "removed": false
        },
        {
          "address": "0x2423ca836d32d91ffb53d4f7d652a0f39cd4208c",
          "topics": [
            "0xb55a3d3f1ccd1c10f00aff03ad884028d98fa1d478fae03acecbf884ce8e8fbc"
          ],
          "data": "0x71204d1498d48b0899d2b581656e261556604a1b066f14d07c2994230f1c06cc000000000000000000000000000000000000000000000000de41ba4fc9d91ad9000000000000000000000000fb0c1e0a4ded6df74e5caa07924aa3f8272ad0b800000000000000000000000000000000000000000000000000000000000f4240000000000000000000000000000000000000000000000000004b7fe35eb8c1d2",
          "blockHash": "0x97a9e6d2ed5be6eb66c700d89596fa88343d675e658c9a7e68df48c64e7d0720",
          "blockNumber": "0x21e5a8c",
          "transactionHash": "0x95747188ca66a7ceacb7581da7f6f8deb6a222b51d9c558be1dad82ba651a59b",
          "transactionIndex": "0x3",
          "logIndex": "0x10",
          "removed": false
        }
      ],
      "logsBloom": "0x010000000000040000010000000000080000480000400010000000000020000000000000040002000120000000004200000080000000000100000000002000000000000000000200000000080000000000800100000000000002002000000010000000000600010000000040000208020c8000000040200000500010000000000000000000000000020000081000000000000000000002000000200000210000020000000000080604100000000000000080000002000000000100000000000000200002000010000400000000000000000080000000000800080004040020000010000400000000000000080000004004000200000000000000001002000000",
      "type": "0x2",
      "transactionHash": "0x95747188ca66a7ceacb7581da7f6f8deb6a222b51d9c558be1dad82ba651a59b",
      "transactionIndex": "0x3",
      "blockHash": "0x97a9e6d2ed5be6eb66c700d89596fa88343d675e658c9a7e68df48c64e7d0720",
      "blockNumber": "0x21e5a8c",
      "gasUsed": "0x69719",
      "effectiveGasPrice": "0x649534e00",
      "from": "0xfb0c1e0a4ded6df74e5caa07924aa3f8272ad0b8",
      "to": "0x2423ca836d32d91ffb53d4f7d652a0f39cd4208c",
      "contractAddress": null
    }
  ],
  "libraries": [],
  "pending": [],
  "returns": {},
  "timestamp": 1724445556,
  "chain": 43113,
  "commit": "e1a614b"
}