{
  "transactions": [
    {
      "hash": "0x338c578a8d968cf2fe2ed5347ba8ca571cef831d73212c5c5ca877e633b3b47b",
      "transactionType": "CALL",
      "contractName": null,
      "contractAddress": "0x5425890298aed601595a70ab815c96711a31bc65",
      "function": "approve(address,uint256)",
      "arguments": [
        "0x2423CA836D32D91ffb53D4f7d652A0F39Cd4208c",
        "1000000"
      ],
      "transaction": {
        "from": "0xfb0c1e0a4ded6df74e5caa07924aa3f8272ad0b8",
        "to": "0x5425890298aed601595a70ab815c96711a31bc65",
        "gas": "0x12b1b",
        "value": "0x0",
        "input": "0x095ea7b30000000000000000000000002423ca836d32d91ffb53d4f7d652a0f39cd4208c00000000000000000000000000000000000000000000000000000000000f4240",
        "nonce": "0x1d",
        "chainId": "0xa869"
      },
      "additionalContracts": [],
      "isFixedGasLimit": false
    },
    {
      "hash": "0x8e27315e13d690aaadd1aa1fb23324ea62286ec2cc52cfbe8d6c26219cee4585",
      "transactionType": "CALL",
      "contractName": null,
      "contractAddress": "0x2423ca836d32d91ffb53d4f7d652a0f39cd4208c",
      "function": "transferUsdc(uint64,address,uint256,uint64)",
      "arguments": [
        "16015286601757825753",
        "0xD6320147B4097E05EAF9b0957b9e8AE5f92889b6",
        "1000000",
        "50000"
      ],
      "transaction": {
        "from": "0xfb0c1e0a4ded6df74e5caa07924aa3f8272ad0b8",
        "to": "0x2423ca836d32d91ffb53d4f7d652a0f39cd4208c",
        "gas": "0x767ba",
        "value": "0x0",
        "input": "0x6b83161a000000000000000000000000000000000000000000000000de41ba4fc9d91ad9000000000000000000000000d6320147b4097e05eaf9b0957b9e8ae5f92889b600000000000000000000000000000000000000000000000000000000000f4240000000000000000000000000000000000000000000000000000000000000c350",
        "nonce": "0x1e",
        "chainId": "0xa869"
      },
      "additionalContracts": [],
      "isFixedGasLimit": false
    }
  ],
  "receipts": [
    {
      "status": "0x1",
      "cumulativeGasUsed": "0xd88d",
      "logs": [
        {
          "address": "0x5425890298aed601595a70ab815c96711a31bc65",
          "topics": [
            "0x8c5be1e5ebec7d5bd14f71427d1e84f3dd0314c0f7b2291e5b200ac8c7c3b925",
            "0x000000000000000000000000fb0c1e0a4ded6df74e5caa07924aa3f8272ad0b8",
            "0x0000000000000000000000002423ca836d32d91ffb53d4f7d652a0f39cd4208c"
          ],
          "data": "0x00000000000000000000000000000000000000000000000000000000000f4240",
          "blockHash": "0x395ed2493e99acdc71c2a8a074adae5d09be6234f8d9a224ff4112e59ff4bb2c",
          "blockNumber": "0x21e9725",
          "transactionHash": "0x338c578a8d968cf2fe2ed5347ba8ca571cef831d73212c5c5ca877e633b3b47b",
          "transactionIndex": "0x0",
          "logIndex": "0x0",
          "removed": false
        }
      ],
      "logsBloom": "0x00000000000000000000000000000000000040000000000000000000000000000000000000000000000000000000000000008000000000000000000000200000000000000000000000000000000000000000000000000000000000000000001000000000000000000000000000000000000000000000000000400000000000000000000000000000000000000000000000000000000000000000200000000000020000000000000000000000000000000000000002000000000000000000000000200000000000000000000000000000000000000000000000080004000000000010000000000000000000000000000000000000000000000000000000000000",
      "type": "0x2",
      "transactionHash": "0x338c578a8d968cf2fe2ed5347ba8ca571cef831d73212c5c5ca877e633b3b47b",
      "transactionIndex": "0x0",
      "blockHash": "0x395ed2493e99acdc71c2a8a074adae5d09be6234f8d9a224ff4112e59ff4bb2c",
      "blockNumber": "0x21e9725",
      "gasUsed": "0xd88d",
      "effectiveGasPrice": "0x66720b300",
      "from": "0xfb0c1e0a4ded6df74e5caa07924aa3f8272ad0b8",
      "to": "0x5425890298aed601595a70ab815c96711a31bc65",
      "contractAddress": null
    },
    {
      "status": "0x1",
      "cumulativeGasUsed": "0x65448",
      "logs": [
        {
          "address": "0x0b9d5d9136855f6fec3c0993fee6e9ce8a297846",
          "topics": [
            "0x8c5be1e5ebec7d5bd14f71427d1e84f3dd0314c0f7b2291e5b200ac8c7c3b925",
            "0x0000000000000000000000002423ca836d32d91ffb53d4f7d652a0f39cd4208c",
            "0x000000000000000000000000f694e193200268f9a4868e4aa017a0118c9a8177"
          ],
          "data": "0x0000000000000000000000000000000000000000000000000289cbbb682c4801",
          "blockHash": "0x0c90ab4811a5305af545ea1e2c871a9d27d5e3053ebb20645f480f6556249469",
          "blockNumber": "0x21e9726",
          "transactionHash": "0x8e27315e13d690aaadd1aa1fb23324ea62286ec2cc52cfbe8d6c26219cee4585",
          "transactionIndex": "0x0",
          "logIndex": "0x0",
          "removed": false
        },
        {
          "address": "0x5425890298aed601595a70ab815c96711a31bc65",
          "topics": [
            "0xddf252ad1be2c89b69c2b068fc378daa952ba7f163c4a11628f55a4df523b3ef",
            "0x000000000000000000000000fb0c1e0a4ded6df74e5caa07924aa3f8272ad0b8",
            "0x0000000000000000000000002423ca836d32d91ffb53d4f7d652a0f39cd4208c"
          ],
          "data": "0x00000000000000000000000000000000000000000000000000000000000f4240",
          "blockHash": "0x0c90ab4811a5305af545ea1e2c871a9d27d5e3053ebb20645f480f6556249469",
          "blockNumber": "0x21e9726",
          "transactionHash": "0x8e27315e13d690aaadd1aa1fb23324ea62286ec2cc52cfbe8d6c26219cee4585",
          "transactionIndex": "0x0",
          "logIndex": "0x1",
          "removed": false
        },
        {
          "address": "0x5425890298aed601595a70ab815c96711a31bc65",
          "topics": [
            "0x8c5be1e5ebec7d5bd14f71427d1e84f3dd0314c0f7b2291e5b200ac8c7c3b925",
            "0x0000000000000000000000002423ca836d32d91ffb53d4f7d652a0f39cd4208c",
            "0x000000000000000000000000f694e193200268f9a4868e4aa017a0118c9a8177"
          ],
          "data": "0x00000000000000000000000000000000000000000000000000000000000f4240",
          "blockHash": "0x0c90ab4811a5305af545ea1e2c871a9d27d5e3053ebb20645f480f6556249469",
          "blockNumber": "0x21e9726",
          "transactionHash": "0x8e27315e13d690aaadd1aa1fb23324ea62286ec2cc52cfbe8d6c26219cee4585",
          "transactionIndex": "0x0",
          "logIndex": "0x2",
          "removed": false
        },
        {
          "address": "0x0b9d5d9136855f6fec3c0993fee6e9ce8a297846",
          "topics": [
            "0xddf252ad1be2c89b69c2b068fc378daa952ba7f163c4a11628f55a4df523b3ef",
            "0x0000000000000000000000002423ca836d32d91ffb53d4f7d652a0f39cd4208c",
            "0x0000000000000000000000005724b4cc39a9690135f7273b44dfd3ba6c0c69ad"
          ],
          "data": "0x0000000000000000000000000000000000000000000000000289cbbb682c4801",
          "blockHash": "0x0c90ab4811a5305af545ea1e2c871a9d27d5e3053ebb20645f480f6556249469",
          "blockNumber": "0x21e9726",
          "transactionHash": "0x8e27315e13d690aaadd1aa1fb23324ea62286ec2cc52cfbe8d6c26219cee4585",
          "transactionIndex": "0x0",
          "logIndex": "0x3",
          "removed": false
        },
        {
          "address": "0x5425890298aed601595a70ab815c96711a31bc65",
          "topics": [
            "0xddf252ad1be2c89b69c2b068fc378daa952ba7f163c4a11628f55a4df523b3ef",
            "0x0000000000000000000000002423ca836d32d91ffb53d4f7d652a0f39cd4208c",
            "0x0000000000000000000000007a4d8f8c18762d362e64b411d7490fba112811cd"
          ],
          "data": "0x00000000000000000000000000000000000000000000000000000000000f4240",
          "blockHash": "0x0c90ab4811a5305af545ea1e2c871a9d27d5e3053ebb20645f480f6556249469",
          "blockNumber": "0x21e9726",
          "transactionHash": "0x8e27315e13d690aaadd1aa1fb23324ea62286ec2cc52cfbe8d6c26219cee4585",
          "transactionIndex": "0x0",
          "logIndex": "0x4",
          "removed": false
        },
        {
          "address": "0x5724b4cc39a9690135f7273b44dfd3ba6c0c69ad",
          "topics": [
            "0x1871cdf8010e63f2eb8384381a68dfa7416dc571a5517e66e88b2d2d0c0a690a"
          ],
          "data": "0x0000000000000000000000000000000000000000000000000de0b6b3a7640000",
          "blockHash": "0x0c90ab4811a5305af545ea1e2c871a9d27d5e3053ebb20645f480f6556249469",
          "blockNumber": "0x21e9726",
          "transactionHash": "0x8e27315e13d690aaadd1aa1fb23324ea62286ec2cc52cfbe8d6c26219cee4585",
          "transactionIndex": "0x0",
          "logIndex": "0x5",
          "removed": false
        },
        {
          "address": "0x7a4d8f8c18762d362e64b411d7490fba112811cd",
          "topics": [
            "0x1871cdf8010e63f2eb8384381a68dfa7416dc571a5517e66e88b2d2d0c0a690a"
          ],
          "data": "0x00000000000000000000000000000000000000000000000000000000000f4240",
          "blockHash": "0x0c90ab4811a5305af545ea1e2c871a9d27d5e3053ebb20645f480f6556249469",
          "blockNumber": "0x21e9726",
          "transactionHash": "0x8e27315e13d690aaadd1aa1fb23324ea62286ec2cc52cfbe8d6c26219cee4585",
          "transactionIndex": "0x0",
          "logIndex": "0x6",
          "removed": false
        },
        {
          "address": "0x5425890298aed601595a70ab815c96711a31bc65",
          "topics": [
            "0xddf252ad1be2c89b69c2b068fc378daa952ba7f163c4a11628f55a4df523b3ef",
            "0x0000000000000000000000007a4d8f8c18762d362e64b411d7490fba112811cd",
            "0x0000000000000000000000004ed8867f9947a5fe140c9dc1c6f207f3489f501e"
          ],
          "data": "0x00000000000000000000000000000000000000000000000000000000000f4240",
          "blockHash": "0x0c90ab4811a5305af545ea1e2c871a9d27d5e3053ebb20645f480f6556249469",
          "blockNumber": "0x21e9726",
          "transactionHash": "0x8e27315e13d690aaadd1aa1fb23324ea62286ec2cc52cfbe8d6c26219cee4585",
          "transactionIndex": "0x0",
          "logIndex": "0x7",
          "removed": false
        },
        {
          "address": "0x5425890298aed601595a70ab815c96711a31bc65",
          "topics": [
            "0xcc16f5dbb4873280815c1ee09dbd06736cffcc184412cf7a71a0fdb75d397ca5",
            "0x0000000000000000000000004ed8867f9947a5fe140c9dc1c6f207f3489f501e"
          ],
          "data": "0x00000000000000000000000000000000000000000000000000000000000f4240",
          "blockHash": "0x0c90ab4811a5305af545ea1e2c871a9d27d5e3053ebb20645f480f6556249469",
          "blockNumber": "0x21e9726",
          "transactionHash": "0x8e27315e13d690aaadd1aa1fb23324ea62286ec2cc52cfbe8d6c26219cee4585",
          "transactionIndex": "0x0",
          "logIndex": "0x8",
          "removed": false
        },
        {
          "address": "0x5425890298aed601595a70ab815c96711a31bc65",
          "topics": [
            "0xddf252ad1be2c89b69c2b068fc378daa952ba7f163c4a11628f55a4df523b3ef",
            "0x0000000000000000000000004ed8867f9947a5fe140c9dc1c6f207f3489f501e",
            "0x0000000000000000000000000000000000000000000000000000000000000000"
          ],
          "data": "0x00000000000000000000000000000000000000000000000000000000000f4240",
          "blockHash": "0x0c90ab4811a5305af545ea1e2c871a9d27d5e3053ebb20645f480f6556249469",
          "blockNumber": "0x21e9726",
          "transactionHash": "0x8e27315e13d690aaadd1aa1fb23324ea62286ec2cc52cfbe8d6c26219cee4585",
          "transactionIndex": "0x0",
          "logIndex": "0x9",
          "removed": false
        },
        {
          "address": "0xa9fb1b3009dcb79e2fe346c16a604b8fa8ae0a79",
          "topics": [
            "0x8c5261668696ce22758910d05bab8f186d6eb247ceac2af2e82c7dc17669b036"
          ],
          "data": "0x000000000000000000000000000000000000000000000000000000000000002000000000000000000000000000000000000000000000000000000000000000f8000000000000000100000000000000000004a953000000000000000000000000eb08f243e5d3fcff26a9e38ae5520a669f4019d00000000000000000000000009f3b8679c73c2fef8b59b4f3444d4e156fb70aa50000000000000000000000003ff675b880ac9f67ac6f4342ffd9e99b80469bad000000000000000000000000000000005425890298aed601595a70ab815c96711a31bc65000000000000000000000000d6320147b4097e05eaf9b0957b9e8ae5f92889b600000000000000000000000000000000000000000000000000000000000f42400000000000000000000000007a4d8f8c18762d362e64b411d7490fba112811cd0000000000000000",
          "blockHash": "0x0c90ab4811a5305af545ea1e2c871a9d27d5e3053ebb20645f480f6556249469",
          "blockNumber": "0x21e9726",
          "transactionHash": "0x8e27315e13d690aaadd1aa1fb23324ea62286ec2cc52cfbe8d6c26219cee4585",
          "transactionIndex": "0x0",
          "logIndex": "0xa",
          "removed": false
        },
        {
          "address": "0xeb08f243e5d3fcff26a9e38ae5520a669f4019d0",
          "topics": [
            "0x2fa9ca894982930190727e75500a97d8dc500233a5065e0f3126c48fbe0343c0",
            "0x000000000000000000000000000000000000000000000000000000000004a953",
            "0x0000000000000000000000005425890298aed601595a70ab815c96711a31bc65",
            "0x0000000000000000000000007a4d8f8c18762d362e64b411d7490fba112811cd"
          ],
          "data": "0x00000000000000000000000000000000000000000000000000000000000f4240000000000000000000000000d6320147b4097e05eaf9b0957b9e8ae5f92889b600000000000000000000000000000000000000000000000000000000000000000000000000000000000000009f3b8679c73c2fef8b59b4f3444d4e156fb70aa50000000000000000000000003ff675b880ac9f67ac6f4342ffd9e99b80469bad",
          "blockHash": "0x0c90ab4811a5305af545ea1e2c871a9d27d5e3053ebb20645f480f6556249469",
          "blockNumber": "0x21e9726",
          "transactionHash": "0x8e27315e13d690aaadd1aa1fb23324ea62286ec2cc52cfbe8d6c26219cee4585",
          "transactionIndex": "0x0",
          "logIndex": "0xb",
          "removed": false
        },
        {
          "address": "0x7a4d8f8c18762d362e64b411d7490fba112811cd",
          "topics": [
            "0x696de425f79f4a40bc6d2122ca50507f0efbeabbff86a84871b7196ab8ea8df7",
            "0x0000000000000000000000005724b4cc39a9690135f7273b44dfd3ba6c0c69ad"
          ],
          "data": "0x00000000000000000000000000000000000000000000000000000000000f4240",
          "blockHash": "0x0c90ab4811a5305af545ea1e2c871a9d27d5e3053ebb20645f480f6556249469",
          "blockNumber": "0x21e9726",
          "transactionHash": "0x8e27315e13d690aaadd1aa1fb23324ea62286ec2cc52cfbe8d6c26219cee4585",
          "transactionIndex": "0x0",
          "logIndex": "0xc",
          "removed": false
        },
        {
          "address": "0x5724b4cc39a9690135f7273b44dfd3ba6c0c69ad",
          "topics": [
            "0xd0c3c799bf9e2639de44391e7f524d229b2b55f5b1ea94b2bf7da42f7243dddd"
          ],
          "data": "0x0000000000000000000000000000000000000000000000000000000000000020000000000000000000000000000000000000000000000000ccf0a31a221f3c9b0000000000000000000000002423ca836d32d91ffb53d4f7d652a0f39cd4208c000000000000000000000000d6320147b4097e05eaf9b0957b9e8ae5f92889b60000000000000000000000000000000000000000000000000000000000003e5d000000000000000000000000000000000000000000000000000000000000c350000000000000000000000000000000000000000000000000000000000000000000000000000000000000000000000000000000000000000000000000000000040000000000000000000000000b9d5d9136855f6fec3c0993fee6e9ce8a2978460000000000000000000000000000000000000000000000000289cbbb682c480100000000000000000000000000000000000000000000000000000000000001a000000000000000000000000000000000000000000000000000000000000001c000000000000000000000000000000000000000000000000000000000000002203f6c16c093fce873c1f12a46ac8f10dbde15b96df1bdcb5c57bf8f153e8ccda6000000000000000000000000000000000000000000000000000000000000000000000000000000000000000000000000000000000000000000000000000000010000000000000000000000005425890298aed601595a70ab815c96711a31bc6500000000000000000000000000000000000000000000000000000000000f4240000000000000000000000000000000000000000000000000000000000000000100000000000000000000000000000000000000000000000000000000000000200000000000000000000000000000000000000000000000000000000000000040000000000000000000000000000000000000000000000000000000000004a9530000000000000000000000000000000000000000000000000000000000000001",
          "blockHash": "0x0c90ab4811a5305af545ea1e2c871a9d27d5e3053ebb20645f480f6556249469",
          "blockNumber": "0x21e9726",
          "transactionHash": "0x8e27315e13d690aaadd1aa1fb23324ea62286ec2cc52cfbe8d6c26219cee4585",
          "transactionIndex": "0x0",
          "logIndex": "0xd",
          "removed": false
        },
        {
          "address": "0x2423ca836d32d91ffb53d4f7d652a0f39cd4208c",
          "topics": [
            "0xb55a3d3f1ccd1c10f00aff03ad884028d98fa1d478fae03acecbf884ce8e8fbc"
          ],
          "data": "0x3f6c16c093fce873c1f12a46ac8f10dbde15b96df1bdcb5c57bf8f153e8ccda6000000000000000000000000000000000000000000000000de41ba4fc9d91ad9000000000000000000000000d6320147b4097e05eaf9b0957b9e8ae5f92889b600000000000000000000000000000000000000000000000000000000000f42400000000000000000000000000000000000000000000000000289cbbb682c4801",
          "blockHash": "0x0c90ab4811a5305af545ea1e2c871a9d27d5e3053ebb20645f480f6556249469",
          "blockNumber": "0x21e9726",
          "transactionHash": "0x8e27315e13d690aaadd1aa1fb23324ea62286ec2cc52cfbe8d6c26219cee4585",
          "transactionIndex": "0x0",
          "logIndex": "0xe",
          "removed": false
        }
      ],
      "logsBloom": "0x010000000000040000010000000000000000480000400010000000000024000000000000040002000120000000004200000080000000000100000000002000000000000000000200000000080000000000800100000000000002002000000010000000000600010000000040000208020c8000000040000000500010000000000000000000000000020000081000000000000000000002000000200000210000020000000000080604100000000000000080000002000000000100000000000000200002000010000400000000000000000080000000000800082004040020000010000400000000000000080000004004000200000000000000001002000000",
      "type": "0x2",
      "transactionHash": "0x8e27315e13d690aaadd1aa1fb23324ea62286ec2cc52cfbe8d6c26219cee4585",
      "transactionIndex": "0x0",
      "blockHash": "0x0c90ab4811a5305af545ea1e2c871a9d27d5e3053ebb20645f480f6556249469",
      "blockNumber": "0x21e9726",
      "gasUsed": "0x65448",
      "effectiveGasPrice": "0x66720b300",
      "from": "0xfb0c1e0a4ded6df74e5caa07924aa3f8272ad0b8",
      "to": "0x2423ca836d32d91ffb53d4f7d652a0f39cd4208c",
      "contractAddress": null
    }
  ],
  "libraries": [],
  "pending": [],
  "returns": {},
  "timestamp": 1724530177,
  "chain": 43113,
  "commit": "b1509dd"
}