{
  "transactions": [
    {
      "hash": "0xdecffc68ed0c5e2e50b11cb6ee2c76dfb9b2d7da5605e85fae2159e1016fc775",
      "transactionType": "CALL",
      "contractName": null,
      "contractAddress": "0x5425890298aed601595a70ab815c96711a31bc65",
      "function": "approve(address,uint256)",
      "arguments": [
        "0x2423CA836D32D91ffb53D4f7d652A0F39Cd4208c",
        "1000000"
      ],
      "transaction": {
        "from": "0xfb0c1e0a4ded6df74e5caa07924aa3f8272ad0b8",
        "to": "0x5425890298aed601595a70ab815c96711a31bc65",
        "gas": "0x12b1b",
        "value": "0x0",
        "input": "0x095ea7b30000000000000000000000002423ca836d32d91ffb53d4f7d652a0f39cd4208c00000000000000000000000000000000000000000000000000000000000f4240",
        "nonce": "0x1b",
        "chainId": "0xa869"
      },
      "additionalContracts": [],
      "isFixedGasLimit": false
    },
    {
      "hash": "0x747ad7738b5ec697d2b7b6af86057514ea230aa05c44e69a70df8577cc140f6e",
      "transactionType": "CALL",
      "contractName": null,
      "contractAddress": "0x2423ca836d32d91ffb53d4f7d652a0f39cd4208c",
      "function": "transferUsdc(uint64,address,uint256,uint64)",
      "arguments": [
        "16015286601757825753",
        "0xD6320147B4097E05EAF9b0957b9e8AE5f92889b6",
        "1000000",
        "5709"
      ],
      "transaction": {
        "from": "0xfb0c1e0a4ded6df74e5caa07924aa3f8272ad0b8",
        "to": "0x2423ca836d32d91ffb53d4f7d652a0f39cd4208c",
        "gas": "0x767ba",
        "value": "0x0",
        "input": "0x6b83161a000000000000000000000000000000000000000000000000de41ba4fc9d91ad9000000000000000000000000d6320147b4097e05eaf9b0957b9e8ae5f92889b600000000000000000000000000000000000000000000000000000000000f4240000000000000000000000000000000000000000000000000000000000000164d",
        "nonce": "0x1c",
        "chainId": "0xa869"
      },
      "additionalContracts": [],
      "isFixedGasLimit": false
    }
  ],
  "receipts": [
    {
      "status": "0x1",
      "cumulativeGasUsed": "0xd88d",
      "logs": [
        {
          "address": "0x5425890298aed601595a70ab815c96711a31bc65",
          "topics": [
            "0x8c5be1e5ebec7d5bd14f71427d1e84f3dd0314c0f7b2291e5b200ac8c7c3b925",
            "0x000000000000000000000000fb0c1e0a4ded6df74e5caa07924aa3f8272ad0b8",
            "0x0000000000000000000000002423ca836d32d91ffb53d4f7d652a0f39cd4208c"
          ],
          "data": "0x00000000000000000000000000000000000000000000000000000000000f4240",
          "blockHash": "0x1f047134a211844408ae8b8d245422d94410708e5fac2dccc703401bb0381ef8",
          "blockNumber": "0x21e95fb",
          "transactionHash": "0xdecffc68ed0c5e2e50b11cb6ee2c76dfb9b2d7da5605e85fae2159e1016fc775",
          "transactionIndex": "0x0",
          "logIndex": "0x0",
          "removed": false
        }
      ],
      "logsBloom": "0x00000000000000000000000000000000000040000000000000000000000000000000000000000000000000000000000000008000000000000000000000200000000000000000000000000000000000000000000000000000000000000000001000000000000000000000000000000000000000000000000000400000000000000000000000000000000000000000000000000000000000000000200000000000020000000000000000000000000000000000000002000000000000000000000000200000000000000000000000000000000000000000000000080004000000000010000000000000000000000000000000000000000000000000000000000000",
      "type": "0x2",
      "transactionHash": "0xdecffc68ed0c5e2e50b11cb6ee2c76dfb9b2d7da5605e85fae2159e1016fc775",
      "transactionIndex": "0x0",
      "blockHash": "0x1f047134a211844408ae8b8d245422d94410708e5fac2dccc703401bb0381ef8",
      "blockNumber": "0x21e95fb",
      "gasUsed": "0xd88d",
      "effectiveGasPrice": "0x66720b300",
      "from": "0xfb0c1e0a4ded6df74e5caa07924aa3f8272ad0b8",
      "to": "0x5425890298aed601595a70ab815c96711a31bc65",
      "contractAddress": null
    },
    {
      "status": "0x1",
      "cumulativeGasUsed": "0x65448",
      "logs": [
        {
          "address": "0x0b9d5d9136855f6fec3c0993fee6e9ce8a297846",
          "topics": [
            "0x8c5be1e5ebec7d5bd14f71427d1e84f3dd0314c0f7b2291e5b200ac8c7c3b925",
            "0x0000000000000000000000002423ca836d32d91ffb53d4f7d652a0f39cd4208c",
            "0x000000000000000000000000f694e193200268f9a4868e4aa017a0118c9a8177"
          ],
          "data": "0x00000000000000000000000000000000000000000000000002da6f494c6a7236",
          "blockHash": "0x86234822567e1b7c10869809997afcb5fb8876a3d23d010a2e91ae54326deb2f",
          "blockNumber": "0x21e95fc",
          "transactionHash": "0x747ad7738b5ec697d2b7b6af86057514ea230aa05c44e69a70df8577cc140f6e",
          "transactionIndex": "0x0",
          "logIndex": "0x0",
          "removed": false
        },
        {
          "address": "0x5425890298aed601595a70ab815c96711a31bc65",
          "topics": [
            "0xddf252ad1be2c89b69c2b068fc378daa952ba7f163c4a11628f55a4df523b3ef",
            "0x000000000000000000000000fb0c1e0a4ded6df74e5caa07924aa3f8272ad0b8",
            "0x0000000000000000000000002423ca836d32d91ffb53d4f7d652a0f39cd4208c"
          ],
          "data": "0x00000000000000000000000000000000000000000000000000000000000f4240",
          "blockHash": "0x86234822567e1b7c10869809997afcb5fb8876a3d23d010a2e91ae54326deb2f",
          "blockNumber": "0x21e95fc",
          "transactionHash": "0x747ad7738b5ec697d2b7b6af86057514ea230aa05c44e69a70df8577cc140f6e",
          "transactionIndex": "0x0",
          "logIndex": "0x1",
          "removed": false
        },
        {
          "address": "0x5425890298aed601595a70ab815c96711a31bc65",
          "topics": [
            "0x8c5be1e5ebec7d5bd14f71427d1e84f3dd0314c0f7b2291e5b200ac8c7c3b925",
            "0x0000000000000000000000002423ca836d32d91ffb53d4f7d652a0f39cd4208c",
            "0x000000000000000000000000f694e193200268f9a4868e4aa017a0118c9a8177"
          ],
          "data": "0x00000000000000000000000000000000000000000000000000000000000f4240",
          "blockHash": "0x86234822567e1b7c10869809997afcb5fb8876a3d23d010a2e91ae54326deb2f",
          "blockNumber": "0x21e95fc",
          "transactionHash": "0x747ad7738b5ec697d2b7b6af86057514ea230aa05c44e69a70df8577cc140f6e",
          "transactionIndex": "0x0",
          "logIndex": "0x2",
          "removed": false
        },
        {
          "address": "0x0b9d5d9136855f6fec3c0993fee6e9ce8a297846",
          "topics": [
            "0xddf252ad1be2c89b69c2b068fc378daa952ba7f163c4a11628f55a4df523b3ef",
            "0x0000000000000000000000002423ca836d32d91ffb53d4f7d652a0f39cd4208c",
            "0x0000000000000000000000005724b4cc39a9690135f7273b44dfd3ba6c0c69ad"
          ],
          "data": "0x00000000000000000000000000000000000000000000000002da6f494c6a7236",
          "blockHash": "0x86234822567e1b7c10869809997afcb5fb8876a3d23d010a2e91ae54326deb2f",
          "blockNumber": "0x21e95fc",
          "transactionHash": "0x747ad7738b5ec697d2b7b6af86057514ea230aa05c44e69a70df8577cc140f6e",
          "transactionIndex": "0x0",
          "logIndex": "0x3",
          "removed": false
        },
        {
          "address": "0x5425890298aed601595a70ab815c96711a31bc65",
          "topics": [
            "0xddf252ad1be2c89b69c2b068fc378daa952ba7f163c4a11628f55a4df523b3ef",
            "0x0000000000000000000000002423ca836d32d91ffb53d4f7d652a0f39cd4208c",
            "0x0000000000000000000000007a4d8f8c18762d362e64b411d7490fba112811cd"
          ],
          "data": "0x00000000000000000000000000000000000000000000000000000000000f4240",
          "blockHash": "0x86234822567e1b7c10869809997afcb5fb8876a3d23d010a2e91ae54326deb2f",
          "blockNumber": "0x21e95fc",
          "transactionHash": "0x747ad7738b5ec697d2b7b6af86057514ea230aa05c44e69a70df8577cc140f6e",
          "transactionIndex": "0x0",
          "logIndex": "0x4",
          "removed": false
        },
        {
          "address": "0x5724b4cc39a9690135f7273b44dfd3ba6c0c69ad",
          "topics": [
            "0x1871cdf8010e63f2eb8384381a68dfa7416dc571a5517e66e88b2d2d0c0a690a"
          ],
          "data": "0x0000000000000000000000000000000000000000000000000de0b6b3a7640000",
          "blockHash": "0x86234822567e1b7c10869809997afcb5fb8876a3d23d010a2e91ae54326deb2f",
          "blockNumber": "0x21e95fc",
          "transactionHash": "0x747ad7738b5ec697d2b7b6af86057514ea230aa05c44e69a70df8577cc140f6e",
          "transactionIndex": "0x0",
          "logIndex": "0x5",
          "removed": false
        },
        {
          "address": "0x7a4d8f8c18762d362e64b411d7490fba112811cd",
          "topics": [
            "0x1871cdf8010e63f2eb8384381a68dfa7416dc571a5517e66e88b2d2d0c0a690a"
          ],
          "data": "0x00000000000000000000000000000000000000000000000000000000000f4240",
          "blockHash": "0x86234822567e1b7c10869809997afcb5fb8876a3d23d010a2e91ae54326deb2f",
          "blockNumber": "0x21e95fc",
          "transactionHash": "0x747ad7738b5ec697d2b7b6af86057514ea230aa05c44e69a70df8577cc140f6e",
          "transactionIndex": "0x0",
          "logIndex": "0x6",
          "removed": false
        },
        {
          "address": "0x5425890298aed601595a70ab815c96711a31bc65",
          "topics": [
            "0xddf252ad1be2c89b69c2b068fc378daa952ba7f163c4a11628f55a4df523b3ef",
            "0x0000000000000000000000007a4d8f8c18762d362e64b411d7490fba112811cd",
            "0x0000000000000000000000004ed8867f9947a5fe140c9dc1c6f207f3489f501e"
          ],
          "data": "0x00000000000000000000000000000000000000000000000000000000000f4240",
          "blockHash": "0x86234822567e1b7c10869809997afcb5fb8876a3d23d010a2e91ae54326deb2f",
          "blockNumber": "0x21e95fc",
          "transactionHash": "0x747ad7738b5ec697d2b7b6af86057514ea230aa05c44e69a70df8577cc140f6e",
          "transactionIndex": "0x0",
          "logIndex": "0x7",
          "removed": false
        },
        {
          "address": "0x5425890298aed601595a70ab815c96711a31bc65",
          "topics": [
            "0xcc16f5dbb4873280815c1ee09dbd06736cffcc184412cf7a71a0fdb75d397ca5",
            "0x0000000000000000000000004ed8867f9947a5fe140c9dc1c6f207f3489f501e"
          ],
          "data": "0x00000000000000000000000000000000000000000000000000000000000f4240",
          "blockHash": "0x86234822567e1b7c10869809997afcb5fb8876a3d23d010a2e91ae54326deb2f",
          "blockNumber": "0x21e95fc",
          "transactionHash": "0x747ad7738b5ec697d2b7b6af86057514ea230aa05c44e69a70df8577cc140f6e",
          "transactionIndex": "0x0",
          "logIndex": "0x8",
          "removed": false
        },
        {
          "address": "0x5425890298aed601595a70ab815c96711a31bc65",
          "topics": [
            "0xddf252ad1be2c89b69c2b068fc378daa952ba7f163c4a11628f55a4df523b3ef",
            "0x0000000000000000000000004ed8867f9947a5fe140c9dc1c6f207f3489f501e",
            "0x0000000000000000000000000000000000000000000000000000000000000000"
          ],
          "data": "0x00000000000000000000000000000000000000000000000000000000000f4240",
          "blockHash": "0x86234822567e1b7c10869809997afcb5fb8876a3d23d010a2e91ae54326deb2f",
          "blockNumber": "0x21e95fc",
          "transactionHash": "0x747ad7738b5ec697d2b7b6af86057514ea230aa05c44e69a70df8577cc140f6e",
          "transactionIndex": "0x0",
          "logIndex": "0x9",
          "removed": false
        },
        {
          "address": "0xa9fb1b3009dcb79e2fe346c16a604b8fa8ae0a79",
          "topics": [
            "0x8c5261668696ce22758910d05bab8f186d6eb247ceac2af2e82c7dc17669b036"
          ],
          "data": "0x000000000000000000000000000000000000000000000000000000000000002000000000000000000000000000000000000000000000000000000000000000f8000000000000000100000000000000000004a950000000000000000000000000eb08f243e5d3fcff26a9e38ae5520a669f4019d00000000000000000000000009f3b8679c73c2fef8b59b4f3444d4e156fb70aa50000000000000000000000003ff675b880ac9f67ac6f4342ffd9e99b80469bad000000000000000000000000000000005425890298aed601595a70ab815c96711a31bc65000000000000000000000000d6320147b4097e05eaf9b0957b9e8ae5f92889b600000000000000000000000000000000000000000000000000000000000f42400000000000000000000000007a4d8f8c18762d362e64b411d7490fba112811cd0000000000000000",
          "blockHash": "0x86234822567e1b7c10869809997afcb5fb8876a3d23d010a2e91ae54326deb2f",
          "blockNumber": "0x21e95fc",
          "transactionHash": "0x747ad7738b5ec697d2b7b6af86057514ea230aa05c44e69a70df8577cc140f6e",
          "transactionIndex": "0x0",
          "logIndex": "0xa",
          "removed": false
        },
        {
          "address": "0xeb08f243e5d3fcff26a9e38ae5520a669f4019d0",
          "topics": [
            "0x2fa9ca894982930190727e75500a97d8dc500233a5065e0f3126c48fbe0343c0",
            "0x000000000000000000000000000000000000000000000000000000000004a950",
            "0x0000000000000000000000005425890298aed601595a70ab815c96711a31bc65",
            "0x0000000000000000000000007a4d8f8c18762d362e64b411d7490fba112811cd"
          ],
          "data": "0x00000000000000000000000000000000000000000000000000000000000f4240000000000000000000000000d6320147b4097e05eaf9b0957b9e8ae5f92889b600000000000000000000000000000000000000000000000000000000000000000000000000000000000000009f3b8679c73c2fef8b59b4f3444d4e156fb70aa50000000000000000000000003ff675b880ac9f67ac6f4342ffd9e99b80469bad",
          "blockHash": "0x86234822567e1b7c10869809997afcb5fb8876a3d23d010a2e91ae54326deb2f",
          "blockNumber": "0x21e95fc",
          "transactionHash": "0x747ad7738b5ec697d2b7b6af86057514ea230aa05c44e69a70df8577cc140f6e",
          "transactionIndex": "0x0",
          "logIndex": "0xb",
          "removed": false
        },
        {
          "address": "0x7a4d8f8c18762d362e64b411d7490fba112811cd",
          "topics": [
            "0x696de425f79f4a40bc6d2122ca50507f0efbeabbff86a84871b7196ab8ea8df7",
            "0x0000000000000000000000005724b4cc39a9690135f7273b44dfd3ba6c0c69ad"
          ],
          "data": "0x00000000000000000000000000000000000000000000000000000000000f4240",
          "blockHash": "0x86234822567e1b7c10869809997afcb5fb8876a3d23d010a2e91ae54326deb2f",
          "blockNumber": "0x21e95fc",
          "transactionHash": "0x747ad7738b5ec697d2b7b6af86057514ea230aa05c44e69a70df8577cc140f6e",
          "transactionIndex": "0x0",
          "logIndex": "0xc",
          "removed": false
        },
        {
          "address": "0x5724b4cc39a9690135f7273b44dfd3ba6c0c69ad",
          "topics": [
            "0xd0c3c799bf9e2639de44391e7f524d229b2b55f5b1ea94b2bf7da42f7243dddd"
          ],
          "data": "0x0000000000000000000000000000000000000000000000000000000000000020000000000000000000000000000000000000000000000000ccf0a31a221f3c9b0000000000000000000000002423ca836d32d91ffb53d4f7d652a0f39cd4208c000000000000000000000000d6320147b4097e05eaf9b0957b9e8ae5f92889b60000000000000000000000000000000000000000000000000000000000003e5a000000000000000000000000000000000000000000000000000000000000164d000000000000000000000000000000000000000000000000000000000000000000000000000000000000000000000000000000000000000000000000000000030000000000000000000000000b9d5d9136855f6fec3c0993fee6e9ce8a29784600000000000000000000000000000000000000000000000002da6f494c6a723600000000000000000000000000000000000000000000000000000000000001a000000000000000000000000000000000000000000000000000000000000001c00000000000000000000000000000000000000000000000000000000000000220113e293da70b1fe8628db634d055582cd1f826f367ac4e294df4323c6a045c0d000000000000000000000000000000000000000000000000000000000000000000000000000000000000000000000000000000000000000000000000000000010000000000000000000000005425890298aed601595a70ab815c96711a31bc6500000000000000000000000000000000000000000000000000000000000f4240000000000000000000000000000000000000000000000000000000000000000100000000000000000000000000000000000000000000000000000000000000200000000000000000000000000000000000000000000000000000000000000040000000000000000000000000000000000000000000000000000000000004a9500000000000000000000000000000000000000000000000000000000000000001",
          "blockHash": "0x86234822567e1b7c10869809997afcb5fb8876a3d23d010a2e91ae54326deb2f",
          "blockNumber": "0x21e95fc",
          "transactionHash": "0x747ad7738b5ec697d2b7b6af86057514ea230aa05c44e69a70df8577cc140f6e",
          "transactionIndex": "0x0",
          "logIndex": "0xd",
          "removed": false
        },
        {
          "address": "0x2423ca836d32d91ffb53d4f7d652a0f39cd4208c",
          "topics": [
            "0xb55a3d3f1ccd1c10f00aff03ad884028d98fa1d478fae03acecbf884ce8e8fbc"
          ],
          "data": "0x113e293da70b1fe8628db634d055582cd1f826f367ac4e294df4323c6a045c0d000000000000000000000000000000000000000000000000de41ba4fc9d91ad9000000000000000000000000d6320147b4097e05eaf9b0957b9e8ae5f92889b600000000000000000000000000000000000000000000000000000000000f424000000000000000000000000000000000000000000000000002da6f494c6a7236",
          "blockHash": "0x86234822567e1b7c10869809997afcb5fb8876a3d23d010a2e91ae54326deb2f",
          "blockNumber": "0x21e95fc",
          "transactionHash": "0x747ad7738b5ec697d2b7b6af86057514ea230aa05c44e69a70df8577cc140f6e",
          "transactionIndex": "0x0",
          "logIndex": "0xe",
          "removed": false
        }
      ],
      "logsBloom": "0x010000000000040000010000000000000000480000400010000000000020000000000000040002000120000000004200000080000000000180000000002000000000000000000300000000080000000000800100000000000002002000000010000000000600010000000040000208020c8000000040000000500010000000000000000000000000020000081000000000000000000002000000200000210000020000000000080604100000000000000080000002000000100100000000000000200002000010000400000000000000000080000000000800080004040020000010000400000000000000080000004004000200000000000000001002000000",
      "type": "0x2",
      "transactionHash": "0x747ad7738b5ec697d2b7b6af86057514ea230aa05c44e69a70df8577cc140f6e",
      "transactionIndex": "0x0",
      "blockHash": "0x86234822567e1b7c10869809997afcb5fb8876a3d23d010a2e91ae54326deb2f",
      "blockNumber": "0x21e95fc",
      "gasUsed": "0x65448",
      "effectiveGasPrice": "0x66720b300",
      "from": "0xfb0c1e0a4ded6df74e5caa07924aa3f8272ad0b8",
      "to": "0x2423ca836d32d91ffb53d4f7d652a0f39cd4208c",
      "contractAddress": null
    }
  ],
  "libraries": [],
  "pending": [],
  "returns": {},
  "timestamp": 1724528192,
  "chain": 43113,
  "commit": "b1509dd"
}